{
    "contractName": "SmartWord",
    "abi": [
        {
            "inputs": [],
            "stateMutability": "nonpayable",
            "type": "constructor"
        },
        {
            "anonymous": false,
            "inputs": [
                {
                    "indexed": true,
                    "internalType": "address",
                    "name": "owner",
                    "type": "address"
                },
                {
                    "indexed": true,
                    "internalType": "address",
                    "name": "approved",
                    "type": "address"
                },
                {
                    "indexed": true,
                    "internalType": "uint256",
                    "name": "tokenId",
                    "type": "uint256"
                }
            ],
            "name": "Approval",
            "type": "event"
        },
        {
            "anonymous": false,
            "inputs": [
                {
                    "indexed": true,
                    "internalType": "address",
                    "name": "owner",
                    "type": "address"
                },
                {
                    "indexed": true,
                    "internalType": "address",
                    "name": "operator",
                    "type": "address"
                },
                {
                    "indexed": false,
                    "internalType": "bool",
                    "name": "approved",
                    "type": "bool"
                }
            ],
            "name": "ApprovalForAll",
            "type": "event"
        },
        {
            "anonymous": false,
            "inputs": [
                {
                    "indexed": true,
                    "internalType": "bytes32",
                    "name": "role",
                    "type": "bytes32"
                },
                {
                    "indexed": true,
                    "internalType": "bytes32",
                    "name": "previousAdminRole",
                    "type": "bytes32"
                },
                {
                    "indexed": true,
                    "internalType": "bytes32",
                    "name": "newAdminRole",
                    "type": "bytes32"
                }
            ],
            "name": "RoleAdminChanged",
            "type": "event"
        },
        {
            "anonymous": false,
            "inputs": [
                {
                    "indexed": true,
                    "internalType": "bytes32",
                    "name": "role",
                    "type": "bytes32"
                },
                {
                    "indexed": true,
                    "internalType": "address",
                    "name": "account",
                    "type": "address"
                },
                {
                    "indexed": true,
                    "internalType": "address",
                    "name": "sender",
                    "type": "address"
                }
            ],
            "name": "RoleGranted",
            "type": "event"
        },
        {
            "anonymous": false,
            "inputs": [
                {
                    "indexed": true,
                    "internalType": "bytes32",
                    "name": "role",
                    "type": "bytes32"
                },
                {
                    "indexed": true,
                    "internalType": "address",
                    "name": "account",
                    "type": "address"
                },
                {
                    "indexed": true,
                    "internalType": "address",
                    "name": "sender",
                    "type": "address"
                }
            ],
            "name": "RoleRevoked",
            "type": "event"
        },
        {
            "anonymous": false,
            "inputs": [
                {
                    "indexed": true,
                    "internalType": "address",
                    "name": "from",
                    "type": "address"
                },
                {
                    "indexed": true,
                    "internalType": "address",
                    "name": "to",
                    "type": "address"
                },
                {
                    "indexed": true,
                    "internalType": "uint256",
                    "name": "tokenId",
                    "type": "uint256"
                }
            ],
            "name": "Transfer",
            "type": "event"
        },
        {
            "inputs": [],
            "name": "DEFAULT_ADMIN_ROLE",
            "outputs": [
                {
                    "internalType": "bytes32",
                    "name": "",
                    "type": "bytes32"
                }
            ],
            "stateMutability": "view",
            "type": "function"
        },
        {
            "inputs": [],
            "name": "MINTER_ROLE",
            "outputs": [
                {
                    "internalType": "bytes32",
                    "name": "",
                    "type": "bytes32"
                }
            ],
            "stateMutability": "view",
            "type": "function"
        },
        {
            "inputs": [
                {
                    "internalType": "address",
                    "name": "to",
                    "type": "address"
                },
                {
                    "internalType": "uint256",
                    "name": "tokenId",
                    "type": "uint256"
                }
            ],
            "name": "approve",
            "outputs": [],
            "stateMutability": "nonpayable",
            "type": "function"
        },
        {
            "inputs": [
                {
                    "internalType": "address",
                    "name": "owner",
                    "type": "address"
                }
            ],
            "name": "balanceOf",
            "outputs": [
                {
                    "internalType": "uint256",
                    "name": "",
                    "type": "uint256"
                }
            ],
            "stateMutability": "view",
            "type": "function"
        },
        {
            "inputs": [
                {
                    "internalType": "uint256",
                    "name": "tokenId",
                    "type": "uint256"
                }
            ],
            "name": "getApproved",
            "outputs": [
                {
                    "internalType": "address",
                    "name": "",
                    "type": "address"
                }
            ],
            "stateMutability": "view",
            "type": "function"
        },
        {
            "inputs": [
                {
                    "internalType": "bytes32",
                    "name": "role",
                    "type": "bytes32"
                }
            ],
            "name": "getRoleAdmin",
            "outputs": [
                {
                    "internalType": "bytes32",
                    "name": "",
                    "type": "bytes32"
                }
            ],
            "stateMutability": "view",
            "type": "function"
        },
        {
            "inputs": [
                {
                    "internalType": "uint256",
                    "name": "id",
                    "type": "uint256"
                }
            ],
            "name": "getTextById",
            "outputs": [
                {
                    "components": [
                        {
                            "internalType": "uint256",
                            "name": "textId",
                            "type": "uint256"
                        },
                        {
                            "internalType": "string",
                            "name": "title",
                            "type": "string"
                        },
                        {
                            "internalType": "string",
                            "name": "content",
                            "type": "string"
                        }
                    ],
                    "internalType": "struct SmartWord.Text",
                    "name": "",
                    "type": "tuple"
                }
            ],
            "stateMutability": "view",
            "type": "function"
        },
        {
            "inputs": [
                {
                    "internalType": "bytes32",
                    "name": "role",
                    "type": "bytes32"
                },
                {
                    "internalType": "address",
                    "name": "account",
                    "type": "address"
                }
            ],
            "name": "grantRole",
            "outputs": [],
            "stateMutability": "nonpayable",
            "type": "function"
        },
        {
            "inputs": [
                {
                    "internalType": "bytes32",
                    "name": "role",
                    "type": "bytes32"
                },
                {
                    "internalType": "address",
                    "name": "account",
                    "type": "address"
                }
            ],
            "name": "hasRole",
            "outputs": [
                {
                    "internalType": "bool",
                    "name": "",
                    "type": "bool"
                }
            ],
            "stateMutability": "view",
            "type": "function"
        },
        {
            "inputs": [
                {
                    "internalType": "address",
                    "name": "owner",
                    "type": "address"
                },
                {
                    "internalType": "address",
                    "name": "operator",
                    "type": "address"
                }
            ],
            "name": "isApprovedForAll",
            "outputs": [
                {
                    "internalType": "bool",
                    "name": "",
                    "type": "bool"
                }
            ],
            "stateMutability": "view",
            "type": "function"
        },
        {
            "inputs": [],
            "name": "name",
            "outputs": [
                {
                    "internalType": "string",
                    "name": "",
                    "type": "string"
                }
            ],
            "stateMutability": "view",
            "type": "function"
        },
        {
            "inputs": [
                {
                    "internalType": "uint256",
                    "name": "tokenId",
                    "type": "uint256"
                }
            ],
            "name": "ownerOf",
            "outputs": [
                {
                    "internalType": "address",
                    "name": "",
                    "type": "address"
                }
            ],
            "stateMutability": "view",
            "type": "function"
        },
        {
            "inputs": [
                {
                    "internalType": "bytes32",
                    "name": "role",
                    "type": "bytes32"
                },
                {
                    "internalType": "address",
                    "name": "account",
                    "type": "address"
                }
            ],
            "name": "renounceRole",
            "outputs": [],
            "stateMutability": "nonpayable",
            "type": "function"
        },
        {
            "inputs": [
                {
                    "internalType": "bytes32",
                    "name": "role",
                    "type": "bytes32"
                },
                {
                    "internalType": "address",
                    "name": "account",
                    "type": "address"
                }
            ],
            "name": "revokeRole",
            "outputs": [],
            "stateMutability": "nonpayable",
            "type": "function"
        },
        {
            "inputs": [
                {
                    "internalType": "address",
                    "name": "from",
                    "type": "address"
                },
                {
                    "internalType": "address",
                    "name": "to",
                    "type": "address"
                },
                {
                    "internalType": "uint256",
                    "name": "tokenId",
                    "type": "uint256"
                }
            ],
            "name": "safeTransferFrom",
            "outputs": [],
            "stateMutability": "nonpayable",
            "type": "function"
        },
        {
            "inputs": [
                {
                    "internalType": "address",
                    "name": "from",
                    "type": "address"
                },
                {
                    "internalType": "address",
                    "name": "to",
                    "type": "address"
                },
                {
                    "internalType": "uint256",
                    "name": "tokenId",
                    "type": "uint256"
                },
                {
                    "internalType": "bytes",
                    "name": "_data",
                    "type": "bytes"
                }
            ],
            "name": "safeTransferFrom",
            "outputs": [],
            "stateMutability": "nonpayable",
            "type": "function"
        },
        {
            "inputs": [
                {
                    "internalType": "address",
                    "name": "operator",
                    "type": "address"
                },
                {
                    "internalType": "bool",
                    "name": "approved",
                    "type": "bool"
                }
            ],
            "name": "setApprovalForAll",
            "outputs": [],
            "stateMutability": "nonpayable",
            "type": "function"
        },
        {
            "inputs": [
                {
                    "internalType": "bytes4",
                    "name": "interfaceId",
                    "type": "bytes4"
                }
            ],
            "name": "supportsInterface",
            "outputs": [
                {
                    "internalType": "bool",
                    "name": "",
                    "type": "bool"
                }
            ],
            "stateMutability": "view",
            "type": "function"
        },
        {
            "inputs": [],
            "name": "symbol",
            "outputs": [
                {
                    "internalType": "string",
                    "name": "",
                    "type": "string"
                }
            ],
            "stateMutability": "view",
            "type": "function"
        },
        {
            "inputs": [
                {
                    "internalType": "address",
                    "name": "author",
                    "type": "address"
                },
                {
                    "internalType": "string",
                    "name": "title",
                    "type": "string"
                },
                {
                    "internalType": "string",
                    "name": "content",
                    "type": "string"
                },
                {
                    "internalType": "uint256",
                    "name": "textId",
                    "type": "uint256"
                }
            ],
            "name": "text",
            "outputs": [
                {
                    "internalType": "uint256",
                    "name": "",
                    "type": "uint256"
                }
            ],
            "stateMutability": "nonpayable",
            "type": "function"
        },
        {
            "inputs": [
                {
                    "internalType": "uint256",
                    "name": "index",
                    "type": "uint256"
                }
            ],
            "name": "tokenByIndex",
            "outputs": [
                {
                    "internalType": "uint256",
                    "name": "",
                    "type": "uint256"
                }
            ],
            "stateMutability": "view",
            "type": "function"
        },
        {
            "inputs": [
                {
                    "internalType": "address",
                    "name": "owner",
                    "type": "address"
                },
                {
                    "internalType": "uint256",
                    "name": "index",
                    "type": "uint256"
                }
            ],
            "name": "tokenOfOwnerByIndex",
            "outputs": [
                {
                    "internalType": "uint256",
                    "name": "",
                    "type": "uint256"
                }
            ],
            "stateMutability": "view",
            "type": "function"
        },
        {
            "inputs": [
                {
                    "internalType": "uint256",
                    "name": "tokenId",
                    "type": "uint256"
                }
            ],
            "name": "tokenURI",
            "outputs": [
                {
                    "internalType": "string",
                    "name": "",
                    "type": "string"
                }
            ],
            "stateMutability": "view",
            "type": "function"
        },
        {
            "inputs": [],
            "name": "totalSupply",
            "outputs": [
                {
                    "internalType": "uint256",
                    "name": "",
                    "type": "uint256"
                }
            ],
            "stateMutability": "view",
            "type": "function"
        },
        {
            "inputs": [
                {
                    "internalType": "address",
                    "name": "from",
                    "type": "address"
                },
                {
                    "internalType": "address",
                    "name": "to",
                    "type": "address"
                },
                {
                    "internalType": "uint256",
                    "name": "tokenId",
                    "type": "uint256"
                }
            ],
            "name": "transferFrom",
            "outputs": [],
            "stateMutability": "nonpayable",
            "type": "function"
        }
    ],
    "bytecode": "60806040523480156200001157600080fd5b50604080518082018252600a815269536d617274576f72647360b01b60208083019182528351808501909452600484526315195e1d60e21b908401528151919291620000609160009162000165565b5080516200007690600190602084019062000165565b505050620000ab7f9f2df0fed2c77648de5860a4cc508cd0818c85b8b8a1ab4ceeef8d981c8956a633620000b160201b60201c565b62000248565b620000bd8282620000c1565b5050565b6000828152600b602090815260408083206001600160a01b038516845290915290205460ff16620000bd576000828152600b602090815260408083206001600160a01b03851684529091529020805460ff19166001179055620001213390565b6001600160a01b0316816001600160a01b0316837f2f8788117e7eff1d82e926ec794901d17c78024a50270940304540a733656f0d60405160405180910390a45050565b82805462000173906200020b565b90600052602060002090601f016020900481019282620001975760008555620001e2565b82601f10620001b257805160ff1916838001178555620001e2565b82800160010185558215620001e2579182015b82811115620001e2578251825591602001919060010190620001c5565b50620001f0929150620001f4565b5090565b5b80821115620001f05760008155600101620001f5565b600181811c908216806200022057607f821691505b602082108114156200024257634e487b7160e01b600052602260045260246000fd5b50919050565b6123f180620002586000396000f3fe608060405234801561001057600080fd5b50600436106101735760003560e01c80634f6ccce7116100de578063a22cb46511610097578063ca7efe0d11610071578063ca7efe0d1461033e578063d539139314610351578063d547741f14610378578063e985e9c51461038b57600080fd5b8063a22cb46514610305578063b88d4fde14610318578063c87b56dd1461032b57600080fd5b80634f6ccce7146102a95780636352211e146102bc57806370a08231146102cf57806391d14854146102e257806395d89b41146102f5578063a217fddf146102fd57600080fd5b8063248a9ca311610130578063248a9ca31461021a5780632f2ff15d1461023d5780632f745c591461025057806336568abe1461026357806342842e0e14610276578063482c333f1461028957600080fd5b806301ffc9a71461017857806306fdde03146101a0578063081812fc146101b5578063095ea7b3146101e057806318160ddd146101f557806323b872dd14610207575b600080fd5b61018b610186366004611fdc565b6103c7565b60405190151581526020015b60405180910390f35b6101a86103d8565b6040516101979190612123565b6101c86101c3366004611fa0565b61046a565b6040516001600160a01b039091168152602001610197565b6101f36101ee366004611f76565b6104f7565b005b6008545b604051908152602001610197565b6101f3610215366004611e06565b61060d565b6101f9610228366004611fa0565b6000908152600b602052604090206001015490565b6101f361024b366004611fb9565b61063e565b6101f961025e366004611f76565b610664565b6101f3610271366004611fb9565b6106fa565b6101f3610284366004611e06565b610778565b61029c610297366004611fa0565b610793565b60405161019791906121d9565b6101f96102b7366004611fa0565b61090a565b6101c86102ca366004611fa0565b61099d565b6101f96102dd366004611db8565b610a14565b61018b6102f0366004611fb9565b610a9b565b6101a8610ac6565b6101f9600081565b6101f3610313366004611ebe565b610ad5565b6101f3610326366004611e42565b610b9a565b6101a8610339366004611fa0565b610bd2565b6101f961034c366004611efa565b610bdd565b6101f97f9f2df0fed2c77648de5860a4cc508cd0818c85b8b8a1ab4ceeef8d981c8956a681565b6101f3610386366004611fb9565b610cae565b61018b610399366004611dd3565b6001600160a01b03918216600090815260056020908152604080832093909416825291909152205460ff1690565b60006103d282610cd4565b92915050565b6060600080546103e7906122ca565b80601f0160208091040260200160405190810160405280929190818152602001828054610413906122ca565b80156104605780601f1061043557610100808354040283529160200191610460565b820191906000526020600020905b81548152906001019060200180831161044357829003601f168201915b5050505050905090565b600061047582610cf9565b6104db5760405162461bcd60e51b815260206004820152602c60248201527f4552433732313a20617070726f76656420717565727920666f72206e6f6e657860448201526b34b9ba32b73a103a37b5b2b760a11b60648201526084015b60405180910390fd5b506000908152600460205260409020546001600160a01b031690565b60006105028261099d565b9050806001600160a01b0316836001600160a01b031614156105705760405162461bcd60e51b815260206004820152602160248201527f4552433732313a20617070726f76616c20746f2063757272656e74206f776e656044820152603960f91b60648201526084016104d2565b336001600160a01b038216148061058c575061058c8133610399565b6105fe5760405162461bcd60e51b815260206004820152603860248201527f4552433732313a20617070726f76652063616c6c6572206973206e6f74206f7760448201527f6e6572206e6f7220617070726f76656420666f7220616c6c000000000000000060648201526084016104d2565b6106088383610d16565b505050565b6106173382610d84565b6106335760405162461bcd60e51b81526004016104d290612188565b610608838383610e6e565b6000828152600b602052604090206001015461065a8133611019565b610608838361107d565b600061066f83610a14565b82106106d15760405162461bcd60e51b815260206004820152602b60248201527f455243373231456e756d657261626c653a206f776e657220696e646578206f7560448201526a74206f6620626f756e647360a81b60648201526084016104d2565b506001600160a01b03919091166000908152600660209081526040808320938352929052205490565b6001600160a01b038116331461076a5760405162461bcd60e51b815260206004820152602f60248201527f416363657373436f6e74726f6c3a2063616e206f6e6c792072656e6f756e636560448201526e103937b632b9903337b91039b2b63360891b60648201526084016104d2565b6107748282611103565b5050565b61060883838360405180602001604052806000815250610b9a565b6107b760405180606001604052806000815260200160608152602001606081525090565b600d6000838152602001908152602001600020604051806060016040529081600082015481526020016001820180546107ef906122ca565b80601f016020809104026020016040519081016040528092919081815260200182805461081b906122ca565b80156108685780601f1061083d57610100808354040283529160200191610868565b820191906000526020600020905b81548152906001019060200180831161084b57829003601f168201915b50505050508152602001600282018054610881906122ca565b80601f01602080910402602001604051908101604052809291908181526020018280546108ad906122ca565b80156108fa5780601f106108cf576101008083540402835291602001916108fa565b820191906000526020600020905b8154815290600101906020018083116108dd57829003601f168201915b5050505050815250509050919050565b600061091560085490565b82106109785760405162461bcd60e51b815260206004820152602c60248201527f455243373231456e756d657261626c653a20676c6f62616c20696e646578206f60448201526b7574206f6620626f756e647360a01b60648201526084016104d2565b6008828154811061098b5761098b612376565b90600052602060002001549050919050565b6000818152600260205260408120546001600160a01b0316806103d25760405162461bcd60e51b815260206004820152602960248201527f4552433732313a206f776e657220717565727920666f72206e6f6e657869737460448201526832b73a103a37b5b2b760b91b60648201526084016104d2565b60006001600160a01b038216610a7f5760405162461bcd60e51b815260206004820152602a60248201527f4552433732313a2062616c616e636520717565727920666f7220746865207a65604482015269726f206164647265737360b01b60648201526084016104d2565b506001600160a01b031660009081526003602052604090205490565b6000918252600b602090815260408084206001600160a01b0393909316845291905290205460ff1690565b6060600180546103e7906122ca565b6001600160a01b038216331415610b2e5760405162461bcd60e51b815260206004820152601960248201527f4552433732313a20617070726f766520746f2063616c6c65720000000000000060448201526064016104d2565b3360008181526005602090815260408083206001600160a01b03871680855290835292819020805460ff191686151590811790915590519081529192917f17307eab39ab6107e8899845ad3d59bd9653f200f220920489ca2b5937696c31910160405180910390a35050565b610ba43383610d84565b610bc05760405162461bcd60e51b81526004016104d290612188565b610bcc8484848461116a565b50505050565b60606103d28261119d565b60007f9f2df0fed2c77648de5860a4cc508cd0818c85b8b8a1ab4ceeef8d981c8956a6610c0a8133611019565b610c18600c80546001019055565b6000610c23600c5490565b9050610c2f8782611331565b610c4181610c3c86611470565b61156e565b6040805160608101825285815260208082018981528284018990526000858152600d8352939093208251815592518051929392610c849260018501920190611c6d565b5060408201518051610ca0916002840191602090910190611c6d565b509198975050505050505050565b6000828152600b6020526040902060010154610cca8133611019565b6106088383611103565b60006001600160e01b03198216637965db0b60e01b14806103d257506103d2826115f9565b6000908152600260205260409020546001600160a01b0316151590565b600081815260046020526040902080546001600160a01b0319166001600160a01b0384169081179091558190610d4b8261099d565b6001600160a01b03167f8c5be1e5ebec7d5bd14f71427d1e84f3dd0314c0f7b2291e5b200ac8c7c3b92560405160405180910390a45050565b6000610d8f82610cf9565b610df05760405162461bcd60e51b815260206004820152602c60248201527f4552433732313a206f70657261746f7220717565727920666f72206e6f6e657860448201526b34b9ba32b73a103a37b5b2b760a11b60648201526084016104d2565b6000610dfb8361099d565b9050806001600160a01b0316846001600160a01b03161480610e365750836001600160a01b0316610e2b8461046a565b6001600160a01b0316145b80610e6657506001600160a01b0380821660009081526005602090815260408083209388168352929052205460ff165b949350505050565b826001600160a01b0316610e818261099d565b6001600160a01b031614610ee95760405162461bcd60e51b815260206004820152602960248201527f4552433732313a207472616e73666572206f6620746f6b656e2074686174206960448201526839903737ba1037bbb760b91b60648201526084016104d2565b6001600160a01b038216610f4b5760405162461bcd60e51b8152602060048201526024808201527f4552433732313a207472616e7366657220746f20746865207a65726f206164646044820152637265737360e01b60648201526084016104d2565b610f5683838361161e565b610f61600082610d16565b6001600160a01b0383166000908152600360205260408120805460019290610f8a908490612270565b90915550506001600160a01b0382166000908152600360205260408120805460019290610fb8908490612225565b909155505060008181526002602052604080822080546001600160a01b0319166001600160a01b0386811691821790925591518493918716917fddf252ad1be2c89b69c2b068fc378daa952ba7f163c4a11628f55a4df523b3ef91a4505050565b6110238282610a9b565b6107745761103b816001600160a01b03166014611629565b611046836020611629565b604051602001611057929190612071565b60408051601f198184030181529082905262461bcd60e51b82526104d291600401612123565b6110878282610a9b565b610774576000828152600b602090815260408083206001600160a01b03851684529091529020805460ff191660011790556110bf3390565b6001600160a01b0316816001600160a01b0316837f2f8788117e7eff1d82e926ec794901d17c78024a50270940304540a733656f0d60405160405180910390a45050565b61110d8282610a9b565b15610774576000828152600b602090815260408083206001600160a01b0385168085529252808320805460ff1916905551339285917ff6391f5c32d9c69d2a47ea670b442974b53935d1edc7fd64eb21e047a839171b9190a45050565b611175848484610e6e565b611181848484846117cc565b610bcc5760405162461bcd60e51b81526004016104d290612136565b60606111a882610cf9565b61120e5760405162461bcd60e51b815260206004820152603160248201527f45524337323155524953746f726167653a2055524920717565727920666f72206044820152703737b732bc34b9ba32b73a103a37b5b2b760791b60648201526084016104d2565b6000828152600a602052604081208054611227906122ca565b80601f0160208091040260200160405190810160405280929190818152602001828054611253906122ca565b80156112a05780601f10611275576101008083540402835291602001916112a0565b820191906000526020600020905b81548152906001019060200180831161128357829003601f168201915b5050505050905060006112e360408051808201909152601f81527f68747470733a2f2f7777772e6d61676e657467616d652e636f6d2f6e66742f00602082015290565b90508051600014156112f6575092915050565b815115611328578082604051602001611310929190612042565b60405160208183030381529060405292505050919050565b610e66846118d9565b6001600160a01b0382166113875760405162461bcd60e51b815260206004820181905260248201527f4552433732313a206d696e7420746f20746865207a65726f206164647265737360448201526064016104d2565b61139081610cf9565b156113dd5760405162461bcd60e51b815260206004820152601c60248201527f4552433732313a20746f6b656e20616c7265616479206d696e7465640000000060448201526064016104d2565b6113e96000838361161e565b6001600160a01b0382166000908152600360205260408120805460019290611412908490612225565b909155505060008181526002602052604080822080546001600160a01b0319166001600160a01b03861690811790915590518392907fddf252ad1be2c89b69c2b068fc378daa952ba7f163c4a11628f55a4df523b3ef908290a45050565b6060816114945750506040805180820190915260018152600360fc1b602082015290565b8160005b81156114be57806114a881612305565b91506114b79050600a8361223d565b9150611498565b60008167ffffffffffffffff8111156114d9576114d961238c565b6040519080825280601f01601f191660200182016040528015611503576020820181803683370190505b5090505b8415610e6657611518600183612270565b9150611525600a86612320565b611530906030612225565b60f81b81838151811061154557611545612376565b60200101906001600160f81b031916908160001a905350611567600a8661223d565b9450611507565b61157782610cf9565b6115da5760405162461bcd60e51b815260206004820152602e60248201527f45524337323155524953746f726167653a2055524920736574206f66206e6f6e60448201526d32bc34b9ba32b73a103a37b5b2b760911b60648201526084016104d2565b6000828152600a60209081526040909120825161060892840190611c6d565b60006001600160e01b0319821663780e9d6360e01b14806103d257506103d2826119d5565b610608838383611a25565b60606000611638836002612251565b611643906002612225565b67ffffffffffffffff81111561165b5761165b61238c565b6040519080825280601f01601f191660200182016040528015611685576020820181803683370190505b509050600360fc1b816000815181106116a0576116a0612376565b60200101906001600160f81b031916908160001a905350600f60fb1b816001815181106116cf576116cf612376565b60200101906001600160f81b031916908160001a90535060006116f3846002612251565b6116fe906001612225565b90505b6001811115611776576f181899199a1a9b1b9c1cb0b131b232b360811b85600f166010811061173257611732612376565b1a60f81b82828151811061174857611748612376565b60200101906001600160f81b031916908160001a90535060049490941c9361176f816122b3565b9050611701565b5083156117c55760405162461bcd60e51b815260206004820181905260248201527f537472696e67733a20686578206c656e67746820696e73756666696369656e7460448201526064016104d2565b9392505050565b60006001600160a01b0384163b156118ce57604051630a85bd0160e11b81526001600160a01b0385169063150b7a02906118109033908990889088906004016120e6565b602060405180830381600087803b15801561182a57600080fd5b505af192505050801561185a575060408051601f3d908101601f1916820190925261185791810190611ff9565b60015b6118b4573d808015611888576040519150601f19603f3d011682016040523d82523d6000602084013e61188d565b606091505b5080516118ac5760405162461bcd60e51b81526004016104d290612136565b805181602001fd5b6001600160e01b031916630a85bd0160e11b149050610e66565b506001949350505050565b60606118e482610cf9565b6119485760405162461bcd60e51b815260206004820152602f60248201527f4552433732314d657461646174613a2055524920717565727920666f72206e6f60448201526e3732bc34b9ba32b73a103a37b5b2b760891b60648201526084016104d2565b600061198460408051808201909152601f81527f68747470733a2f2f7777772e6d61676e657467616d652e636f6d2f6e66742f00602082015290565b905060008151116119a457604051806020016040528060008152506117c5565b806119ae84611470565b6040516020016119bf929190612042565b6040516020818303038152906040529392505050565b60006001600160e01b031982166380ac58cd60e01b1480611a0657506001600160e01b03198216635b5e139f60e01b145b806103d257506301ffc9a760e01b6001600160e01b03198316146103d2565b6001600160a01b038316611a8057611a7b81600880546000838152600960205260408120829055600182018355919091527ff3f7a9fe364faab93b216da50a3214154f22a0a2b415b23a84c8169e8b636ee30155565b611aa3565b816001600160a01b0316836001600160a01b031614611aa357611aa38382611add565b6001600160a01b038216611aba5761060881611b7a565b826001600160a01b0316826001600160a01b031614610608576106088282611c29565b60006001611aea84610a14565b611af49190612270565b600083815260076020526040902054909150808214611b47576001600160a01b03841660009081526006602090815260408083208584528252808320548484528184208190558352600790915290208190555b5060009182526007602090815260408084208490556001600160a01b039094168352600681528383209183525290812055565b600854600090611b8c90600190612270565b60008381526009602052604081205460088054939450909284908110611bb457611bb4612376565b906000526020600020015490508060088381548110611bd557611bd5612376565b6000918252602080832090910192909255828152600990915260408082208490558582528120556008805480611c0d57611c0d612360565b6001900381819060005260206000200160009055905550505050565b6000611c3483610a14565b6001600160a01b039093166000908152600660209081526040808320868452825280832085905593825260079052919091209190915550565b828054611c79906122ca565b90600052602060002090601f016020900481019282611c9b5760008555611ce1565b82601f10611cb457805160ff1916838001178555611ce1565b82800160010185558215611ce1579182015b82811115611ce1578251825591602001919060010190611cc6565b50611ced929150611cf1565b5090565b5b80821115611ced5760008155600101611cf2565b600067ffffffffffffffff80841115611d2157611d2161238c565b604051601f8501601f19908116603f01168101908282118183101715611d4957611d4961238c565b81604052809350858152868686011115611d6257600080fd5b858560208301376000602087830101525050509392505050565b80356001600160a01b0381168114611d9357600080fd5b919050565b600082601f830112611da957600080fd5b6117c583833560208501611d06565b600060208284031215611dca57600080fd5b6117c582611d7c565b60008060408385031215611de657600080fd5b611def83611d7c565b9150611dfd60208401611d7c565b90509250929050565b600080600060608486031215611e1b57600080fd5b611e2484611d7c565b9250611e3260208501611d7c565b9150604084013590509250925092565b60008060008060808587031215611e5857600080fd5b611e6185611d7c565b9350611e6f60208601611d7c565b925060408501359150606085013567ffffffffffffffff811115611e9257600080fd5b8501601f81018713611ea357600080fd5b611eb287823560208401611d06565b91505092959194509250565b60008060408385031215611ed157600080fd5b611eda83611d7c565b915060208301358015158114611eef57600080fd5b809150509250929050565b60008060008060808587031215611f1057600080fd5b611f1985611d7c565b9350602085013567ffffffffffffffff80821115611f3657600080fd5b611f4288838901611d98565b94506040870135915080821115611f5857600080fd5b50611f6587828801611d98565b949793965093946060013593505050565b60008060408385031215611f8957600080fd5b611f9283611d7c565b946020939093013593505050565b600060208284031215611fb257600080fd5b5035919050565b60008060408385031215611fcc57600080fd5b82359150611dfd60208401611d7c565b600060208284031215611fee57600080fd5b81356117c5816123a2565b60006020828403121561200b57600080fd5b81516117c5816123a2565b6000815180845261202e816020860160208601612287565b601f01601f19169290920160200192915050565b60008351612054818460208801612287565b835190830190612068818360208801612287565b01949350505050565b7f416363657373436f6e74726f6c3a206163636f756e74200000000000000000008152600083516120a9816017850160208801612287565b7001034b99036b4b9b9b4b733903937b6329607d1b60179184019182015283516120da816028840160208801612287565b01602801949350505050565b6001600160a01b038581168252841660208201526040810183905260806060820181905260009061211990830184612016565b9695505050505050565b6020815260006117c56020830184612016565b60208082526032908201527f4552433732313a207472616e7366657220746f206e6f6e20455243373231526560408201527131b2b4bb32b91034b6b83632b6b2b73a32b960711b606082015260800190565b60208082526031908201527f4552433732313a207472616e736665722063616c6c6572206973206e6f74206f6040820152701ddb995c881b9bdc88185c1c1c9bdd9959607a1b606082015260800190565b602081528151602082015260006020830151606060408401526121ff6080840182612016565b90506040840151601f1984830301606085015261221c8282612016565b95945050505050565b6000821982111561223857612238612334565b500190565b60008261224c5761224c61234a565b500490565b600081600019048311821515161561226b5761226b612334565b500290565b60008282101561228257612282612334565b500390565b60005b838110156122a257818101518382015260200161228a565b83811115610bcc5750506000910152565b6000816122c2576122c2612334565b506000190190565b600181811c908216806122de57607f821691505b602082108114156122ff57634e487b7160e01b600052602260045260246000fd5b50919050565b600060001982141561231957612319612334565b5060010190565b60008261232f5761232f61234a565b500690565b634e487b7160e01b600052601160045260246000fd5b634e487b7160e01b600052601260045260246000fd5b634e487b7160e01b600052603160045260246000fd5b634e487b7160e01b600052603260045260246000fd5b634e487b7160e01b600052604160045260246000fd5b6001600160e01b0319811681146123b857600080fd5b5056fea264697066735822122006e0a0b3c593df54b06be5aaa42518de5753221379e606f174b17d4f301ffb6b64736f6c63430008060033",
    "sourcePath": "/Users/andropov/SmartWords/contracts/SmartWords.sol",
    "compiler": {
        "name": "solc",
        "version": "0.8.6+commit.11564f7e"
    },
    "functionHashes": {
        "DEFAULT_ADMIN_ROLE()": "a217fddf",
        "MINTER_ROLE()": "d5391393",
        "approve(address,uint256)": "095ea7b3",
        "balanceOf(address)": "70a08231",
        "getApproved(uint256)": "081812fc",
        "getRoleAdmin(bytes32)": "248a9ca3",
        "getTextById(uint256)": "482c333f",
        "grantRole(bytes32,address)": "2f2ff15d",
        "hasRole(bytes32,address)": "91d14854",
        "isApprovedForAll(address,address)": "e985e9c5",
        "name()": "06fdde03",
        "ownerOf(uint256)": "6352211e",
        "renounceRole(bytes32,address)": "36568abe",
        "revokeRole(bytes32,address)": "d547741f",
        "safeTransferFrom(address,address,uint256)": "42842e0e",
        "safeTransferFrom(address,address,uint256,bytes)": "b88d4fde",
        "setApprovalForAll(address,bool)": "a22cb465",
        "supportsInterface(bytes4)": "01ffc9a7",
        "symbol()": "95d89b41",
        "text(address,string,string,uint256)": "ca7efe0d",
        "tokenByIndex(uint256)": "4f6ccce7",
        "tokenOfOwnerByIndex(address,uint256)": "2f745c59",
        "tokenURI(uint256)": "c87b56dd",
        "totalSupply()": "18160ddd",
        "transferFrom(address,address,uint256)": "23b872dd"
    },
    "gasEstimates": {
        "creation": {
            "codeDepositCost": "1840200",
            "executionCost": "infinite",
            "totalCost": "infinite"
        },
        "external": {
            "DEFAULT_ADMIN_ROLE()": "328",
            "MINTER_ROLE()": "261",
            "approve(address,uint256)": "infinite",
            "balanceOf(address)": "2656",
            "getApproved(uint256)": "4799",
            "getRoleAdmin(bytes32)": "2467",
            "getTextById(uint256)": "infinite",
            "grantRole(bytes32,address)": "infinite",
            "hasRole(bytes32,address)": "2743",
            "isApprovedForAll(address,address)": "infinite",
            "name()": "infinite",
            "ownerOf(uint256)": "2601",
            "renounceRole(bytes32,address)": "29090",
            "revokeRole(bytes32,address)": "infinite",
            "safeTransferFrom(address,address,uint256)": "infinite",
            "safeTransferFrom(address,address,uint256,bytes)": "infinite",
            "setApprovalForAll(address,bool)": "26673",
            "supportsInterface(bytes4)": "infinite",
            "symbol()": "infinite",
            "text(address,string,string,uint256)": "infinite",
            "tokenByIndex(uint256)": "6738",
            "tokenOfOwnerByIndex(address,uint256)": "4997",
            "tokenURI(uint256)": "infinite",
            "totalSupply()": "2393",
            "transferFrom(address,address,uint256)": "infinite"
        },
        "internal": {
            "_baseURI()": "infinite",
            "_beforeTokenTransfer(address,address,uint256)": "infinite",
            "_burn(uint256)": "infinite"
        }
    }
}